{"abi":[{"type":"function","name":"getNode","inputs":[{"name":"signer","type":"address","internalType":"address"}],"outputs":[{"name":"url","type":"string","internalType":"string"},{"name":"registeredAt","type":"uint256","internalType":"uint256"}],"stateMutability":"view"},{"type":"function","name":"getNodes","inputs":[{"name":"offset","type":"uint256","internalType":"uint256"},{"name":"limit","type":"uint256","internalType":"uint256"}],"outputs":[{"name":"signers","type":"address[]","internalType":"address[]"},{"name":"urls","type":"string[]","internalType":"string[]"},{"name":"timestamps","type":"uint256[]","internalType":"uint256[]"}],"stateMutability":"view"},{"type":"function","name":"nodeCount","inputs":[],"outputs":[{"name":"","type":"uint256","internalType":"uint256"}],"stateMutability":"view"},{"type":"function","name":"register","inputs":[{"name":"url","type":"string","internalType":"string"},{"name":"signature","type":"bytes","internalType":"bytes"}],"outputs":[{"name":"signer","type":"address","internalType":"address"}],"stateMutability":"nonpayable"},{"type":"event","name":"NodeRegistered","inputs":[{"name":"signer","type":"address","indexed":true,"internalType":"address"},{"name":"url","type":"string","indexed":false,"internalType":"string"}],"anonymous":false},{"type":"event","name":"NodeUpdated","inputs":[{"name":"signer","type":"address","indexed":true,"internalType":"address"},{"name":"url","type":"string","indexed":false,"internalType":"string"}],"anonymous":false}],"bytecode":{"object":"0x608060405234801561000f575f80fd5b5061173c8061001d5f395ff3fe608060405234801561000f575f80fd5b506004361061004a575f3560e01c8063038d67e81461004e57806350db6b40146100805780636da49b83146100b05780639d209048146100ce575b5f80fd5b61006860048036038101906100639190610a4e565b6100ff565b60405161007793929190610d6f565b60405180910390f35b61009a60048036038101906100959190610e6f565b61051b565b6040516100a79190610efc565b60405180910390f35b6100b8610790565b6040516100c59190610f24565b60405180910390f35b6100e860048036038101906100e39190610f67565b61079c565b6040516100f6929190610fda565b60405180910390f35b60608060605f6001805490509050808610610200575f67ffffffffffffffff81111561012e5761012d611008565b5b60405190808252806020026020018201604052801561015c5781602001602082028036833780820191505090505b505f67ffffffffffffffff81111561017757610176611008565b5b6040519080825280602002602001820160405280156101aa57816020015b60608152602001906001900390816101955790505b505f67ffffffffffffffff8111156101c5576101c4611008565b5b6040519080825280602002602001820160405280156101f35781602001602082028036833780820191505090505b5093509350935050610514565b5f81868861020e9190611062565b1161022457858761021f9190611062565b610226565b815b90505f87826102359190611095565b90508067ffffffffffffffff81111561025157610250611008565b5b60405190808252806020026020018201604052801561027f5781602001602082028036833780820191505090505b5095508067ffffffffffffffff81111561029c5761029b611008565b5b6040519080825280602002602001820160405280156102cf57816020015b60608152602001906001900390816102ba5790505b5094508067ffffffffffffffff8111156102ec576102eb611008565b5b60405190808252806020026020018201604052801561031a5781602001602082028036833780820191505090505b5093505f5b8181101561050f575f6001828b6103369190611062565b81548110610347576103466110c8565b5b905f5260205f20015f9054906101000a900473ffffffffffffffffffffffffffffffffffffffff16905080888381518110610385576103846110c8565b5b602002602001019073ffffffffffffffffffffffffffffffffffffffff16908173ffffffffffffffffffffffffffffffffffffffff16815250505f808273ffffffffffffffffffffffffffffffffffffffff1673ffffffffffffffffffffffffffffffffffffffff1681526020019081526020015f205f01805461040890611122565b80601f016020809104026020016040519081016040528092919081815260200182805461043490611122565b801561047f5780601f106104565761010080835404028352916020019161047f565b820191905f5260205f20905b81548152906001019060200180831161046257829003601f168201915b5050505050878381518110610497576104966110c8565b5b60200260200101819052505f808273ffffffffffffffffffffffffffffffffffffffff1673ffffffffffffffffffffffffffffffffffffffff1681526020019081526020015f20600101548683815181106104f5576104f46110c8565b5b60200260200101818152505050808060010191505061031f565b505050505b9250925092565b5f8085856040516020016105309291906111b4565b6040516020818303038152906040528051906020012090505f8160405160200161055a919061124e565b60405160208183030381529060405280519060200120905061057d81868661087a565b92505f805f808673ffffffffffffffffffffffffffffffffffffffff1673ffffffffffffffffffffffffffffffffffffffff1681526020019081526020015f2060010154149050604051806040016040528089898080601f0160208091040260200160405190810160405280939291908181526020018383808284375f81840152601f19601f820116905080830192505050505050508152602001428152505f808673ffffffffffffffffffffffffffffffffffffffff1673ffffffffffffffffffffffffffffffffffffffff1681526020019081526020015f205f820151815f01908161066b9190611410565b5060208201518160010155905050801561073457600184908060018154018082558091505060019003905f5260205f20015f9091909190916101000a81548173ffffffffffffffffffffffffffffffffffffffff021916908373ffffffffffffffffffffffffffffffffffffffff1602179055508373ffffffffffffffffffffffffffffffffffffffff167f27dcab8cdfa14145566e2b9d04fea5a4e8ea320a3f04488a1de4d431ed1080ab898960405161072792919061150b565b60405180910390a2610785565b8373ffffffffffffffffffffffffffffffffffffffff167f5f9fcbc17fba60677ae056851409ca727b54b90cb63be975f68684d06613b078898960405161077c92919061150b565b60405180910390a25b505050949350505050565b5f600180549050905090565b60605f805f808573ffffffffffffffffffffffffffffffffffffffff1673ffffffffffffffffffffffffffffffffffffffff1681526020019081526020015f209050805f0181600101548180546107f290611122565b80601f016020809104026020016040519081016040528092919081815260200182805461081e90611122565b80156108695780601f1061084057610100808354040283529160200191610869565b820191905f5260205f20905b81548152906001019060200180831161084c57829003601f168201915b505050505091509250925050915091565b5f604183839050146108c1576040517f08c379a00000000000000000000000000000000000000000000000000000000081526004016108b890611577565b60405180910390fd5b5f805f853592506020860135915060408601355f1a9050601b8160ff1610156108f457601b816108f191906115a1565b90505b601b8160ff1614806109095750601c8160ff16145b610948576040517f08c379a000000000000000000000000000000000000000000000000000000000815260040161093f9061161f565b60405180910390fd5b5f6001888386866040515f815260200160405260405161096b949392919061165b565b6020604051602081039080840390855afa15801561098b573d5f803e3d5ffd5b5050506020604051035190505f73ffffffffffffffffffffffffffffffffffffffff168173ffffffffffffffffffffffffffffffffffffffff1603610a05576040517f08c379a00000000000000000000000000000000000000000000000000000000081526004016109fc906116e8565b60405180910390fd5b809450505050509392505050565b5f80fd5b5f80fd5b5f819050919050565b610a2d81610a1b565b8114610a37575f80fd5b50565b5f81359050610a4881610a24565b92915050565b5f8060408385031215610a6457610a63610a13565b5b5f610a7185828601610a3a565b9250506020610a8285828601610a3a565b9150509250929050565b5f81519050919050565b5f82825260208201905092915050565b5f819050602082019050919050565b5f73ffffffffffffffffffffffffffffffffffffffff82169050919050565b5f610ade82610ab5565b9050919050565b610aee81610ad4565b82525050565b5f610aff8383610ae5565b60208301905092915050565b5f602082019050919050565b5f610b2182610a8c565b610b2b8185610a96565b9350610b3683610aa6565b805f5b83811015610b66578151610b4d8882610af4565b9750610b5883610b0b565b925050600181019050610b39565b5085935050505092915050565b5f81519050919050565b5f82825260208201905092915050565b5f819050602082019050919050565b5f81519050919050565b5f82825260208201905092915050565b5f5b83811015610bd3578082015181840152602081019050610bb8565b5f8484015250505050565b5f601f19601f8301169050919050565b5f610bf882610b9c565b610c028185610ba6565b9350610c12818560208601610bb6565b610c1b81610bde565b840191505092915050565b5f610c318383610bee565b905092915050565b5f602082019050919050565b5f610c4f82610b73565b610c598185610b7d565b935083602082028501610c6b85610b8d565b805f5b85811015610ca65784840389528151610c878582610c26565b9450610c9283610c39565b925060208a01995050600181019050610c6e565b50829750879550505050505092915050565b5f81519050919050565b5f82825260208201905092915050565b5f819050602082019050919050565b610cea81610a1b565b82525050565b5f610cfb8383610ce1565b60208301905092915050565b5f602082019050919050565b5f610d1d82610cb8565b610d278185610cc2565b9350610d3283610cd2565b805f5b83811015610d62578151610d498882610cf0565b9750610d5483610d07565b925050600181019050610d35565b5085935050505092915050565b5f6060820190508181035f830152610d878186610b17565b90508181036020830152610d9b8185610c45565b90508181036040830152610daf8184610d13565b9050949350505050565b5f80fd5b5f80fd5b5f80fd5b5f8083601f840112610dda57610dd9610db9565b5b8235905067ffffffffffffffff811115610df757610df6610dbd565b5b602083019150836001820283011115610e1357610e12610dc1565b5b9250929050565b5f8083601f840112610e2f57610e2e610db9565b5b8235905067ffffffffffffffff811115610e4c57610e4b610dbd565b5b602083019150836001820283011115610e6857610e67610dc1565b5b9250929050565b5f805f8060408587031215610e8757610e86610a13565b5b5f85013567ffffffffffffffff811115610ea457610ea3610a17565b5b610eb087828801610dc5565b9450945050602085013567ffffffffffffffff811115610ed357610ed2610a17565b5b610edf87828801610e1a565b925092505092959194509250565b610ef681610ad4565b82525050565b5f602082019050610f0f5f830184610eed565b92915050565b610f1e81610a1b565b82525050565b5f602082019050610f375f830184610f15565b92915050565b610f4681610ad4565b8114610f50575f80fd5b50565b5f81359050610f6181610f3d565b92915050565b5f60208284031215610f7c57610f7b610a13565b5b5f610f8984828501610f53565b91505092915050565b5f82825260208201905092915050565b5f610fac82610b9c565b610fb68185610f92565b9350610fc6818560208601610bb6565b610fcf81610bde565b840191505092915050565b5f6040820190508181035f830152610ff28185610fa2565b90506110016020830184610f15565b9392505050565b7f4e487b71000000000000000000000000000000000000000000000000000000005f52604160045260245ffd5b7f4e487b71000000000000000000000000000000000000000000000000000000005f52601160045260245ffd5b5f61106c82610a1b565b915061107783610a1b565b925082820190508082111561108f5761108e611035565b5b92915050565b5f61109f82610a1b565b91506110aa83610a1b565b92508282039050818111156110c2576110c1611035565b5b92915050565b7f4e487b71000000000000000000000000000000000000000000000000000000005f52603260045260245ffd5b7f4e487b71000000000000000000000000000000000000000000000000000000005f52602260045260245ffd5b5f600282049050600182168061113957607f821691505b60208210810361114c5761114b6110f5565b5b50919050565b7f636369702d726f757465723a6e6f64653a000000000000000000000000000000815250565b5f81905092915050565b828183375f83830152505050565b5f61119b8385611178565b93506111a8838584611182565b82840190509392505050565b5f6111be82611152565b6011820191506111cf828486611190565b91508190509392505050565b7f19457468657265756d205369676e6564204d6573736167653a0a3332000000005f82015250565b5f61120f601c83611178565b915061121a826111db565b601c82019050919050565b5f819050919050565b5f819050919050565b61124861124382611225565b61122e565b82525050565b5f61125882611203565b91506112648284611237565b60208201915081905092915050565b5f819050815f5260205f209050919050565b5f6020601f8301049050919050565b5f82821b905092915050565b5f600883026112cf7fffffffffffffffffffffffffffffffffffffffffffffffffffffffffffffffff82611294565b6112d98683611294565b95508019841693508086168417925050509392505050565b5f819050919050565b5f61131461130f61130a84610a1b565b6112f1565b610a1b565b9050919050565b5f819050919050565b61132d836112fa565b6113416113398261131b565b8484546112a0565b825550505050565b5f90565b611355611349565b611360818484611324565b505050565b5b81811015611383576113785f8261134d565b600181019050611366565b5050565b601f8211156113c85761139981611273565b6113a284611285565b810160208510156113b1578190505b6113c56113bd85611285565b830182611365565b50505b505050565b5f82821c905092915050565b5f6113e85f19846008026113cd565b1980831691505092915050565b5f61140083836113d9565b9150826002028217905092915050565b61141982610b9c565b67ffffffffffffffff81111561143257611431611008565b5b61143c8254611122565b611447828285611387565b5f60209050601f831160018114611478575f8415611466578287015190505b61147085826113f5565b8655506114d7565b601f19841661148686611273565b5f5b828110156114ad57848901518255600182019150602085019450602081019050611488565b868310156114ca57848901516114c6601f8916826113d9565b8355505b6001600288020188555050505b505050505050565b5f6114ea8385610f92565b93506114f7838584611182565b61150083610bde565b840190509392505050565b5f6020820190508181035f8301526115248184866114df565b90509392505050565b7f4e6f646552656769737472793a2062616420736967206c656e677468000000005f82015250565b5f611561601c83610f92565b915061156c8261152d565b602082019050919050565b5f6020820190508181035f83015261158e81611555565b9050919050565b5f60ff82169050919050565b5f6115ab82611595565b91506115b683611595565b9250828201905060ff8111156115cf576115ce611035565b5b92915050565b7f4e6f646552656769737472793a206261642076000000000000000000000000005f82015250565b5f611609601383610f92565b9150611614826115d5565b602082019050919050565b5f6020820190508181035f830152611636816115fd565b9050919050565b61164681611225565b82525050565b61165581611595565b82525050565b5f60808201905061166e5f83018761163d565b61167b602083018661164c565b611688604083018561163d565b611695606083018461163d565b95945050505050565b7f4e6f646552656769737472793a2065637265636f766572206661696c656400005f82015250565b5f6116d2601e83610f92565b91506116dd8261169e565b602082019050919050565b5f6020820190508181035f8301526116ff816116c6565b905091905056fea26469706673582212205e33dfd591c0fac29bce43a8b3d666b144acb6e7349b2e63f86c822cbacfabd564736f6c63430008180033","linkReferences":{}},"methodIdentifiers":{"getNode(address)":"9d209048","getNodes(uint256,uint256)":"038d67e8","nodeCount()":"6da49b83","register(string,bytes)":"50db6b40"},"id":1}