{"abi":[{"type":"function","name":"commitmentOf","inputs":[{"name":"","type":"bytes32","internalType":"bytes32"}],"outputs":[{"name":"","type":"bytes32","internalType":"bytes32"}],"stateMutability":"view"},{"type":"function","name":"isRecorded","inputs":[{"name":"commitmentHash","type":"bytes32","internalType":"bytes32"}],"outputs":[{"name":"","type":"bool","internalType":"bool"}],"stateMutability":"view"},{"type":"function","name":"record","inputs":[{"name":"a","type":"tuple","internalType":"struct AttestationIndex.WyriweAttestation","components":[{"name":"agentId","type":"bytes32","internalType":"bytes32"},{"name":"registry","type":"address","internalType":"address"},{"name":"modelHash","type":"bytes32","internalType":"bytes32"},{"name":"rawInputHash","type":"bytes32","internalType":"bytes32"},{"name":"sanitizationPipelineHash","type":"bytes32","internalType":"bytes32"},{"name":"inputHash","type":"bytes32","internalType":"bytes32"},{"name":"outputHash","type":"bytes32","internalType":"bytes32"},{"name":"commitmentHash","type":"bytes32","internalType":"bytes32"},{"name":"timestamp","type":"uint256","internalType":"uint256"}]},{"name":"signature","type":"bytes","internalType":"bytes"}],"outputs":[{"name":"signer","type":"address","internalType":"address"}],"stateMutability":"nonpayable"},{"type":"function","name":"signerOf","inputs":[{"name":"","type":"bytes32","internalType":"bytes32"}],"outputs":[{"name":"","type":"address","internalType":"address"}],"stateMutability":"view"},{"type":"event","name":"AttestationRecorded","inputs":[{"name":"commitmentHash","type":"bytes32","indexed":true,"internalType":"bytes32"},{"name":"inputHash","type":"bytes32","indexed":true,"internalType":"bytes32"},{"name":"agentId","type":"bytes32","indexed":true,"internalType":"bytes32"},{"name":"signer","type":"address","indexed":false,"internalType":"address"},{"name":"timestamp","type":"uint256","indexed":false,"internalType":"uint256"}],"anonymous":false}],"bytecode":{"object":"0x608060405234801561000f575f80fd5b50610e378061001d5f395ff3fe608060405234801561000f575f80fd5b506004361061004a575f3560e01c806312dcb7a01461004e5780639823e6861461007e578063a10bb806146100ae578063cc3f5873146100de575b5f80fd5b610068600480360381019061006391906106ce565b61010e565b6040516100759190610713565b60405180910390f35b610098600480360381019061009391906106ce565b610175565b6040516100a5919061076b565b60405180910390f35b6100c860048036038101906100c391906106ce565b6101a4565b6040516100d59190610793565b60405180910390f35b6100f860048036038101906100f39190610830565b6101b9565b604051610105919061076b565b60405180910390f35b5f8073ffffffffffffffffffffffffffffffffffffffff165f808481526020019081526020015f205f9054906101000a900473ffffffffffffffffffffffffffffffffffffffff1673ffffffffffffffffffffffffffffffffffffffff1614159050919050565b5f602052805f5260405f205f915054906101000a900473ffffffffffffffffffffffffffffffffffffffff1681565b6001602052805f5260405f205f915090505481565b5f8073ffffffffffffffffffffffffffffffffffffffff165f808660e0013581526020019081526020015f205f9054906101000a900473ffffffffffffffffffffffffffffffffffffffff1673ffffffffffffffffffffffffffffffffffffffff161461025b576040517f08c379a00000000000000000000000000000000000000000000000000000000081526004016102529061090f565b60405180910390fd5b5f7f8b73c3c69bb8fe3d512ecc4cf759cc79239f7b179b0ffacaa9a75d522b39400f7fc3dc521d1237729e2c271b34397deb78b0e79a3aa49acebf066a6294c43b85ed7fc89efdaa54c0f20c7adf612882df0950f5a951637e0307cdcb4c672f298b8bc6468860200160208101906102d39190610957565b6040516020016102e795949392919061099a565b6040516020818303038152906040528051906020012090505f7f465936ddc3693f48ac8b4c7b3e097d2b4be6011f2dac0be649291fd9a6c418a0865f01358760200160208101906103389190610957565b886040013589606001358a608001358b60a001358c60c001358d60e001358e61010001356040516020016103759a999897969594939291906109eb565b6040516020818303038152906040528051906020012090505f82826040516020016103a1929190610af9565b6040516020818303038152906040528051906020012090506103c48187876104fa565b93505f73ffffffffffffffffffffffffffffffffffffffff168473ffffffffffffffffffffffffffffffffffffffff1603610434576040517f08c379a000000000000000000000000000000000000000000000000000000000815260040161042b90610b9f565b60405180910390fd5b835f808960e0013581526020019081526020015f205f6101000a81548173ffffffffffffffffffffffffffffffffffffffff021916908373ffffffffffffffffffffffffffffffffffffffff1602179055508660e0013560015f8960a0013581526020019081526020015f2081905550865f01358760a001358860e001357ffcf8a88836f197f876eec746d8290807a6ad127e2a6594918c334738513fb9e8878b61010001356040516104e8929190610bbd565b60405180910390a45050509392505050565b5f60418383905014610541576040517f08c379a000000000000000000000000000000000000000000000000000000000815260040161053890610c2e565b60405180910390fd5b5f805f853592506020860135915060408601355f1a9050601b8160ff16101561057457601b816105719190610c85565b90505b601b8160ff1614806105895750601c8160ff16145b6105c8576040517f08c379a00000000000000000000000000000000000000000000000000000000081526004016105bf90610d03565b60405180910390fd5b5f6001888386866040515f81526020016040526040516105eb9493929190610d30565b6020604051602081039080840390855afa15801561060b573d5f803e3d5ffd5b5050506020604051035190505f73ffffffffffffffffffffffffffffffffffffffff168173ffffffffffffffffffffffffffffffffffffffff1603610685576040517f08c379a000000000000000000000000000000000000000000000000000000000815260040161067c90610de3565b60405180910390fd5b809450505050509392505050565b5f80fd5b5f80fd5b5f819050919050565b6106ad8161069b565b81146106b7575f80fd5b50565b5f813590506106c8816106a4565b92915050565b5f602082840312156106e3576106e2610693565b5b5f6106f0848285016106ba565b91505092915050565b5f8115159050919050565b61070d816106f9565b82525050565b5f6020820190506107265f830184610704565b92915050565b5f73ffffffffffffffffffffffffffffffffffffffff82169050919050565b5f6107558261072c565b9050919050565b6107658161074b565b82525050565b5f60208201905061077e5f83018461075c565b92915050565b61078d8161069b565b82525050565b5f6020820190506107a65f830184610784565b92915050565b5f80fd5b5f61012082840312156107c6576107c56107ac565b5b81905092915050565b5f80fd5b5f80fd5b5f80fd5b5f8083601f8401126107f0576107ef6107cf565b5b8235905067ffffffffffffffff81111561080d5761080c6107d3565b5b602083019150836001820283011115610829576108286107d7565b5b9250929050565b5f805f610140848603121561084857610847610693565b5b5f610855868287016107b0565b93505061012084013567ffffffffffffffff81111561087757610876610697565b5b610883868287016107db565b92509250509250925092565b5f82825260208201905092915050565b7f4174746573746174696f6e496e6465783a20616c7265616479207265636f72645f8201527f6564000000000000000000000000000000000000000000000000000000000000602082015250565b5f6108f960228361088f565b91506109048261089f565b604082019050919050565b5f6020820190508181035f830152610926816108ed565b9050919050565b6109368161074b565b8114610940575f80fd5b50565b5f813590506109518161092d565b92915050565b5f6020828403121561096c5761096b610693565b5b5f61097984828501610943565b91505092915050565b5f819050919050565b61099481610982565b82525050565b5f60a0820190506109ad5f830188610784565b6109ba6020830187610784565b6109c76040830186610784565b6109d4606083018561098b565b6109e1608083018461075c565b9695505050505050565b5f610140820190506109ff5f83018d610784565b610a0c602083018c610784565b610a19604083018b61075c565b610a26606083018a610784565b610a336080830189610784565b610a4060a0830188610784565b610a4d60c0830187610784565b610a5a60e0830186610784565b610a68610100830185610784565b610a7661012083018461098b565b9b9a5050505050505050505050565b5f81905092915050565b7f19010000000000000000000000000000000000000000000000000000000000005f82015250565b5f610ac3600283610a85565b9150610ace82610a8f565b600282019050919050565b5f819050919050565b610af3610aee8261069b565b610ad9565b82525050565b5f610b0382610ab7565b9150610b0f8285610ae2565b602082019150610b1f8284610ae2565b6020820191508190509392505050565b7f4174746573746174696f6e496e6465783a20696e76616c6964207369676e61745f8201527f7572650000000000000000000000000000000000000000000000000000000000602082015250565b5f610b8960238361088f565b9150610b9482610b2f565b604082019050919050565b5f6020820190508181035f830152610bb681610b7d565b9050919050565b5f604082019050610bd05f83018561075c565b610bdd602083018461098b565b9392505050565b7f4174746573746174696f6e496e6465783a2062616420736967206c656e6774685f82015250565b5f610c1860208361088f565b9150610c2382610be4565b602082019050919050565b5f6020820190508181035f830152610c4581610c0c565b9050919050565b5f60ff82169050919050565b7f4e487b71000000000000000000000000000000000000000000000000000000005f52601160045260245ffd5b5f610c8f82610c4c565b9150610c9a83610c4c565b9250828201905060ff811115610cb357610cb2610c58565b5b92915050565b7f4174746573746174696f6e496e6465783a2062616420760000000000000000005f82015250565b5f610ced60178361088f565b9150610cf882610cb9565b602082019050919050565b5f6020820190508181035f830152610d1a81610ce1565b9050919050565b610d2a81610c4c565b82525050565b5f608082019050610d435f830187610784565b610d506020830186610d21565b610d5d6040830185610784565b610d6a6060830184610784565b95945050505050565b7f4174746573746174696f6e496e6465783a2065637265636f766572206661696c5f8201527f6564000000000000000000000000000000000000000000000000000000000000602082015250565b5f610dcd60228361088f565b9150610dd882610d73565b604082019050919050565b5f6020820190508181035f830152610dfa81610dc1565b905091905056fea2646970667358221220f6f051a31888be724946767861d50dfd14487a0688cbc2bef18d17f00d7827e764736f6c63430008180033","linkReferences":{}},"methodIdentifiers":{"commitmentOf(bytes32)":"a10bb806","isRecorded(bytes32)":"12dcb7a0","record((bytes32,address,bytes32,bytes32,bytes32,bytes32,bytes32,bytes32,uint256),bytes)":"cc3f5873","signerOf(bytes32)":"9823e686"},"id":0}